{
  "transactions": [
    {
      "hash": "0xb374b53c8301a87f69676ff0125a6e7c41c26480f71364e7e6f858d62066eba9",
      "transactionType": "CALL",
      "contractName": null,
      "contractAddress": "0x93eb461cf90bf505adc00e295fd91a6063e46eda",
      "function": "addChain(uint64,address)",
      "arguments": [
        "14767482510784806043",
        "0x3feeacec974ca351cc563bE8542e690c29C0a64e"
      ],
      "transaction": {
        "from": "0x4fed0a5b65eac383d36e65733786386709b86be8",
        "to": "0x93eb461cf90bf505adc00e295fd91a6063e46eda",
        "gas": "0xfcfb",
        "value": "0x0",
        "input": "0x0c1b1880000000000000000000000000000000000000000000000000ccf0a31a221f3c9b0000000000000000000000003feeacec974ca351cc563be8542e690c29c0a64e",
        "nonce": "0xc4",
        "chainId": "0x279f"
      },
      "additionalContracts": [],
      "isFixedGasLimit": false
    }
  ],
  "receipts": [
    {
      "status": "0x1",
      "cumulativeGasUsed": "0xb1eaa3",
      "logs": [],
      "logsBloom": "0x00000000000000000000000000000000000000000000000000000000000000000000000000000000000000000000000000000000000000000000000000000000000000000000000000000000000000000000000000000000000000000000000000000000000000000000000000000000000000000000000000000000000000000000000000000000000000000000000000000000000000000000000000000000000000000000000000000000000000000000000000000000000000000000000000000000000000000000000000000000000000000000000000000000000000000000000000000000000000000000000000000000000000000000000000000000",
      "type": "0x2",
      "transactionHash": "0xb374b53c8301a87f69676ff0125a6e7c41c26480f71364e7e6f858d62066eba9",
      "transactionIndex": "0x94",
      "blockHash": "0x0b09dd7dc960160e3ad9607191957bbf11ec22fc2af50db23f615edddbba86c8",
      "blockNumber": "0x18a296a",
      "gasUsed": "0xfcfb",
      "effectiveGasPrice": "0xba43b7401",
      "from": "0x4fed0a5b65eac383d36e65733786386709b86be8",
      "to": "0x93eb461cf90bf505adc00e295fd91a6063e46eda",
      "contractAddress": null
    }
  ],
  "libraries": [],
  "pending": [],
  "returns": {},
  "timestamp": 1752280603,
  "chain": 10143,
  "commit": "1a51c12"
}