{
  "transactions": [
    {
      "hash": "0x13234fcb11f3560209fabf6c3ecb5245d09addbff480eaa424cba7c967171415",
      "transactionType": "CALL",
      "contractName": null,
      "contractAddress": "0x622cd4b0d87d16e00cef7489e5f87c55cf231796",
      "function": "addChain(uint64,address)",
      "arguments": [
        "14767482510784806043",
        "0x243e3a2996dba746b3A50a61f76E99E341D4282D"
      ],
      "transaction": {
        "from": "0x4fed0a5b65eac383d36e65733786386709b86be8",
        "to": "0x622cd4b0d87d16e00cef7489e5f87c55cf231796",
        "gas": "0x10bbb",
        "value": "0x0",
        "input": "0x0c1b1880000000000000000000000000000000000000000000000000ccf0a31a221f3c9b000000000000000000000000243e3a2996dba746b3a50a61f76e99e341d4282d",
        "nonce": "0x7",
        "chainId": "0x279f"
      },
      "additionalContracts": [],
      "isFixedGasLimit": false
    }
  ],
  "receipts": [
    {
      "status": "0x1",
      "cumulativeGasUsed": "0xd0952e",
      "logs": [],
      "logsBloom": "0x00000000000000000000000000000000000000000000000000000000000000000000000000000000000000000000000000000000000000000000000000000000000000000000000000000000000000000000000000000000000000000000000000000000000000000000000000000000000000000000000000000000000000000000000000000000000000000000000000000000000000000000000000000000000000000000000000000000000000000000000000000000000000000000000000000000000000000000000000000000000000000000000000000000000000000000000000000000000000000000000000000000000000000000000000000000",
      "type": "0x2",
      "transactionHash": "0x13234fcb11f3560209fabf6c3ecb5245d09addbff480eaa424cba7c967171415",
      "transactionIndex": "0x3c",
      "blockHash": "0xcb0955b19b4a85f4f181d96aa94fdabe15378aaad015b3f79da20f72849461b4",
      "blockNumber": "0x17cbaec",
      "gasUsed": "0x10bbb",
      "effectiveGasPrice": "0xba43b7401",
      "from": "0x4fed0a5b65eac383d36e65733786386709b86be8",
      "to": "0x622cd4b0d87d16e00cef7489e5f87c55cf231796",
      "contractAddress": null
    }
  ],
  "libraries": [],
  "pending": [],
  "returns": {},
  "timestamp": 1751801420,
  "chain": 10143,
  "commit": "27cfe53"
}