{
  "transactions": [
    {
      "hash": "0xddbc290ecdab7a1ea8d0f7f47d7c299246d7c0c387ad22152478f31933b111f1",
      "transactionType": "CALL",
      "contractName": null,
      "contractAddress": "0x877524fad4960de0672ad241bf6e618f021d2a4a",
      "function": "addChain(uint64,address)",
      "arguments": [
        "14767482510784806043",
        "0x33E849aC2f493bEaDD3def3E0D56334107a00948"
      ],
      "transaction": {
        "from": "0x4fed0a5b65eac383d36e65733786386709b86be8",
        "to": "0x877524fad4960de0672ad241bf6e618f021d2a4a",
        "gas": "0x10bbb",
        "value": "0x0",
        "input": "0x0c1b1880000000000000000000000000000000000000000000000000ccf0a31a221f3c9b00000000000000000000000033e849ac2f493beadd3def3e0d56334107a00948",
        "nonce": "0x32",
        "chainId": "0x279f"
      },
      "additionalContracts": [],
      "isFixedGasLimit": false
    }
  ],
  "receipts": [
    {
      "status": "0x1",
      "cumulativeGasUsed": "0x7e562d",
      "logs": [],
      "logsBloom": "0x00000000000000000000000000000000000000000000000000000000000000000000000000000000000000000000000000000000000000000000000000000000000000000000000000000000000000000000000000000000000000000000000000000000000000000000000000000000000000000000000000000000000000000000000000000000000000000000000000000000000000000000000000000000000000000000000000000000000000000000000000000000000000000000000000000000000000000000000000000000000000000000000000000000000000000000000000000000000000000000000000000000000000000000000000000000",
      "type": "0x2",
      "transactionHash": "0xddbc290ecdab7a1ea8d0f7f47d7c299246d7c0c387ad22152478f31933b111f1",
      "transactionIndex": "0x36",
      "blockHash": "0x37c8328ec32286794c4c384bca6c6655577ecffa6ab881cdcf629152f51fc7a0",
      "blockNumber": "0x17d6be6",
      "gasUsed": "0x10bbb",
      "effectiveGasPrice": "0xba43b7401",
      "from": "0x4fed0a5b65eac383d36e65733786386709b86be8",
      "to": "0x877524fad4960de0672ad241bf6e618f021d2a4a",
      "contractAddress": null
    }
  ],
  "libraries": [],
  "pending": [],
  "returns": {},
  "timestamp": 1751826262,
  "chain": 10143,
  "commit": "27cfe53"
}