{
  "transactions": [
    {
      "hash": "0xd1d5368374df88491db7139e914bb37edc5753867db9e2c7f1414d5bbc2fe35f",
      "transactionType": "CALL",
      "contractName": null,
      "contractAddress": "0xed8172ab3a5ce156d1dcf4940aaa59e8a37617f9",
      "function": "addChain(uint64,address)",
      "arguments": [
        "14767482510784806043",
        "0x627a2F593b42BA018d23b92ffDD130970D18417A"
      ],
      "transaction": {
        "from": "0x4fed0a5b65eac383d36e65733786386709b86be8",
        "to": "0xed8172ab3a5ce156d1dcf4940aaa59e8a37617f9",
        "gas": "0x10bbb",
        "value": "0x0",
        "input": "0x0c1b1880000000000000000000000000000000000000000000000000ccf0a31a221f3c9b000000000000000000000000627a2f593b42ba018d23b92ffdd130970d18417a",
        "nonce": "0x26",
        "chainId": "0x279f"
      },
      "additionalContracts": [],
      "isFixedGasLimit": false
    }
  ],
  "receipts": [
    {
      "status": "0x1",
      "cumulativeGasUsed": "0x1476aae",
      "logs": [],
      "logsBloom": "0x00000000000000000000000000000000000000000000000000000000000000000000000000000000000000000000000000000000000000000000000000000000000000000000000000000000000000000000000000000000000000000000000000000000000000000000000000000000000000000000000000000000000000000000000000000000000000000000000000000000000000000000000000000000000000000000000000000000000000000000000000000000000000000000000000000000000000000000000000000000000000000000000000000000000000000000000000000000000000000000000000000000000000000000000000000000",
      "type": "0x2",
      "transactionHash": "0xd1d5368374df88491db7139e914bb37edc5753867db9e2c7f1414d5bbc2fe35f",
      "transactionIndex": "0x37",
      "blockHash": "0x4d60266cb16415305f1a8ee6198e29551bbb3a64dbf98c1f99e08555d9e52ef2",
      "blockNumber": "0x17d54a8",
      "gasUsed": "0x10bbb",
      "effectiveGasPrice": "0xba43b7401",
      "from": "0x4fed0a5b65eac383d36e65733786386709b86be8",
      "to": "0xed8172ab3a5ce156d1dcf4940aaa59e8a37617f9",
      "contractAddress": null
    }
  ],
  "libraries": [],
  "pending": [],
  "returns": {},
  "timestamp": 1751822991,
  "chain": 10143,
  "commit": "27cfe53"
}