{
  "transactions": [
    {
      "hash": "0x5ac1f40bc78ed76fa02ae022c6baf8fa2773605dcc484f5cc03fe1a3207effbc",
      "transactionType": "CALL",
      "contractName": null,
      "contractAddress": "0x900dc7d052ae2d8f91320834f23b5805c7f39d8a",
      "function": "addChain(uint64,address)",
      "arguments": [
        "14767482510784806043",
        "0x42d84a9426b3912F50E40ac6635407F04BfE4A64"
      ],
      "transaction": {
        "from": "0x4fed0a5b65eac383d36e65733786386709b86be8",
        "to": "0x900dc7d052ae2d8f91320834f23b5805c7f39d8a",
        "gas": "0x919c",
        "value": "0x0",
        "input": "0x0c1b1880000000000000000000000000000000000000000000000000ccf0a31a221f3c9b00000000000000000000000042d84a9426b3912f50e40ac6635407f04bfe4a64",
        "nonce": "0x93",
        "chainId": "0x279f"
      },
      "additionalContracts": [],
      "isFixedGasLimit": false
    }
  ],
  "receipts": [
    {
      "status": "0x1",
      "cumulativeGasUsed": "0x6e548e7",
      "logs": [],
      "logsBloom": "0x00000000000000000000000000000000000000000000000000000000000000000000000000000000000000000000000000000000000000000000000000000000000000000000000000000000000000000000000000000000000000000000000000000000000000000000000000000000000000000000000000000000000000000000000000000000000000000000000000000000000000000000000000000000000000000000000000000000000000000000000000000000000000000000000000000000000000000000000000000000000000000000000000000000000000000000000000000000000000000000000000000000000000000000000000000000",
      "type": "0x2",
      "transactionHash": "0x5ac1f40bc78ed76fa02ae022c6baf8fa2773605dcc484f5cc03fe1a3207effbc",
      "transactionIndex": "0x15",
      "blockHash": "0xd0f64d61c3f521a3d364523e94c402e57df84987b5de235d0d84f284a715d3d7",
      "blockNumber": "0x185bb22",
      "gasUsed": "0x919c",
      "effectiveGasPrice": "0xba43b7401",
      "from": "0x4fed0a5b65eac383d36e65733786386709b86be8",
      "to": "0x900dc7d052ae2d8f91320834f23b5805c7f39d8a",
      "contractAddress": null
    }
  ],
  "libraries": [],
  "pending": [],
  "returns": {},
  "timestamp": 1752118849,
  "chain": 10143,
  "commit": "27cfe53"
}