{
  "transactions": [
    {
      "hash": "0x2cca5545e6d250f1ebba2e45ffe644c82fae1c47c08ae7dc829b29247b43a130",
      "transactionType": "CALL",
      "contractName": null,
      "contractAddress": "0xb260c8f9d1f75e07ac9419b03d0ab287952722bd",
      "function": "addChain(uint64,address)",
      "arguments": [
        "14767482510784806043",
        "0x9d97780e4423eBa2b14EB679d71324accdb9BD08"
      ],
      "transaction": {
        "from": "0x4fed0a5b65eac383d36e65733786386709b86be8",
        "to": "0xb260c8f9d1f75e07ac9419b03d0ab287952722bd",
        "gas": "0x10bbb",
        "value": "0x0",
        "input": "0x0c1b1880000000000000000000000000000000000000000000000000ccf0a31a221f3c9b0000000000000000000000009d97780e4423eba2b14eb679d71324accdb9bd08",
        "nonce": "0x1c",
        "chainId": "0x279f"
      },
      "additionalContracts": [],
      "isFixedGasLimit": false
    }
  ],
  "receipts": [
    {
      "status": "0x1",
      "cumulativeGasUsed": "0x818c82",
      "logs": [],
      "logsBloom": "0x00000000000000000000000000000000000000000000000000000000000000000000000000000000000000000000000000000000000000000000000000000000000000000000000000000000000000000000000000000000000000000000000000000000000000000000000000000000000000000000000000000000000000000000000000000000000000000000000000000000000000000000000000000000000000000000000000000000000000000000000000000000000000000000000000000000000000000000000000000000000000000000000000000000000000000000000000000000000000000000000000000000000000000000000000000000",
      "type": "0x2",
      "transactionHash": "0x2cca5545e6d250f1ebba2e45ffe644c82fae1c47c08ae7dc829b29247b43a130",
      "transactionIndex": "0x39",
      "blockHash": "0x68e6742730f3dc7241c76345eca60f515a80856d5653a345680bfbd3e60f1d91",
      "blockNumber": "0x17d291e",
      "gasUsed": "0x10bbb",
      "effectiveGasPrice": "0xba43b7401",
      "from": "0x4fed0a5b65eac383d36e65733786386709b86be8",
      "to": "0xb260c8f9d1f75e07ac9419b03d0ab287952722bd",
      "contractAddress": null
    }
  ],
  "libraries": [],
  "pending": [],
  "returns": {},
  "timestamp": 1751816880,
  "chain": 10143,
  "commit": "27cfe53"
}