{
  "transactions": [
    {
      "hash": "0x90c5461e519096eeee0e66581856a87ec6587d19d8bf76aa29858672a59fd245",
      "transactionType": "CALL",
      "contractName": null,
      "contractAddress": "0xdd589744a479b731706e90228d1752e2bbeca4dc",
      "function": "addChain(uint64,address)",
      "arguments": [
        "14767482510784806043",
        "0x44E0E329eD60263c494a4902F0Ec9C44Ce8af158"
      ],
      "transaction": {
        "from": "0x4fed0a5b65eac383d36e65733786386709b86be8",
        "to": "0xdd589744a479b731706e90228d1752e2bbeca4dc",
        "gas": "0x10bbb",
        "value": "0x0",
        "input": "0x0c1b1880000000000000000000000000000000000000000000000000ccf0a31a221f3c9b00000000000000000000000044e0e329ed60263c494a4902f0ec9c44ce8af158",
        "nonce": "0x16",
        "chainId": "0x279f"
      },
      "additionalContracts": [],
      "isFixedGasLimit": false
    }
  ],
  "receipts": [
    {
      "status": "0x1",
      "cumulativeGasUsed": "0xfbf2f1",
      "logs": [],
      "logsBloom": "0x00000000000000000000000000000000000000000000000000000000000000000000000000000000000000000000000000000000000000000000000000000000000000000000000000000000000000000000000000000000000000000000000000000000000000000000000000000000000000000000000000000000000000000000000000000000000000000000000000000000000000000000000000000000000000000000000000000000000000000000000000000000000000000000000000000000000000000000000000000000000000000000000000000000000000000000000000000000000000000000000000000000000000000000000000000000",
      "type": "0x2",
      "transactionHash": "0x90c5461e519096eeee0e66581856a87ec6587d19d8bf76aa29858672a59fd245",
      "transactionIndex": "0x46",
      "blockHash": "0xabc0a994ba948c9bba6d6ff3392cf493a315f248a60aabedca6a19981509b7ba",
      "blockNumber": "0x17d2246",
      "gasUsed": "0x10bbb",
      "effectiveGasPrice": "0xba43b7401",
      "from": "0x4fed0a5b65eac383d36e65733786386709b86be8",
      "to": "0xdd589744a479b731706e90228d1752e2bbeca4dc",
      "contractAddress": null
    }
  ],
  "libraries": [],
  "pending": [],
  "returns": {},
  "timestamp": 1751815930,
  "chain": 10143,
  "commit": "27cfe53"
}