{
  "transactions": [
    {
      "hash": "0x8bbeaa271efa76927fbe7b74fc38f6a3d5d36f34a1b91307e956129826039a8d",
      "transactionType": "CALL",
      "contractName": null,
      "contractAddress": "0x93eb461cf90bf505adc00e295fd91a6063e46eda",
      "function": "addChain(uint64,address)",
      "arguments": [
        "14767482510784806043",
        "0x3feeacec974ca351cc563bE8542e690c29C0a64e"
      ],
      "transaction": {
        "from": "0x4fed0a5b65eac383d36e65733786386709b86be8",
        "to": "0x93eb461cf90bf505adc00e295fd91a6063e46eda",
        "gas": "0x919c",
        "value": "0x0",
        "input": "0x0c1b1880000000000000000000000000000000000000000000000000ccf0a31a221f3c9b0000000000000000000000003feeacec974ca351cc563be8542e690c29c0a64e",
        "nonce": "0xc6",
        "chainId": "0x279f"
      },
      "additionalContracts": [],
      "isFixedGasLimit": false
    }
  ],
  "receipts": [
    {
      "status": "0x1",
      "cumulativeGasUsed": "0x5b37ff",
      "logs": [],
      "logsBloom": "0x00000000000000000000000000000000000000000000000000000000000000000000000000000000000000000000000000000000000000000000000000000000000000000000000000000000000000000000000000000000000000000000000000000000000000000000000000000000000000000000000000000000000000000000000000000000000000000000000000000000000000000000000000000000000000000000000000000000000000000000000000000000000000000000000000000000000000000000000000000000000000000000000000000000000000000000000000000000000000000000000000000000000000000000000000000000",
      "type": "0x2",
      "transactionHash": "0x8bbeaa271efa76927fbe7b74fc38f6a3d5d36f34a1b91307e956129826039a8d",
      "transactionIndex": "0x38",
      "blockHash": "0x74c2a126c01575b153da32b5d2e08c2ad75d44e0bc250d342f72e1439cdf5306",
      "blockNumber": "0x18a2b3b",
      "gasUsed": "0x919c",
      "effectiveGasPrice": "0xba43b7401",
      "from": "0x4fed0a5b65eac383d36e65733786386709b86be8",
      "to": "0x93eb461cf90bf505adc00e295fd91a6063e46eda",
      "contractAddress": null
    }
  ],
  "libraries": [],
  "pending": [],
  "returns": {},
  "timestamp": 1752280869,
  "chain": 10143,
  "commit": "1a51c12"
}