{
  "transactions": [
    {
      "hash": "0x25deba333a3a077bd0be3d0663b8ef0675639247d5736acbd138799b2f974344",
      "transactionType": "CALL",
      "contractName": null,
      "contractAddress": "0x27b22cdbbf3b03dde7597ec8ff8640b74aeea58b",
      "function": "addChain(uint64,address)",
      "arguments": [
        "14767482510784806043",
        "0xe6483DaF7A72992cc1D4672dCE9fF68d0B1Aa94B"
      ],
      "transaction": {
        "from": "0x4fed0a5b65eac383d36e65733786386709b86be8",
        "to": "0x27b22cdbbf3b03dde7597ec8ff8640b74aeea58b",
        "gas": "0xfcfb",
        "value": "0x0",
        "input": "0x0c1b1880000000000000000000000000000000000000000000000000ccf0a31a221f3c9b000000000000000000000000e6483daf7a72992cc1d4672dce9ff68d0b1aa94b",
        "nonce": "0xb5",
        "chainId": "0x279f"
      },
      "additionalContracts": [],
      "isFixedGasLimit": false
    }
  ],
  "receipts": [
    {
      "status": "0x1",
      "cumulativeGasUsed": "0xa1cc25",
      "logs": [],
      "logsBloom": "0x00000000000000000000000000000000000000000000000000000000000000000000000000000000000000000000000000000000000000000000000000000000000000000000000000000000000000000000000000000000000000000000000000000000000000000000000000000000000000000000000000000000000000000000000000000000000000000000000000000000000000000000000000000000000000000000000000000000000000000000000000000000000000000000000000000000000000000000000000000000000000000000000000000000000000000000000000000000000000000000000000000000000000000000000000000000",
      "type": "0x2",
      "transactionHash": "0x25deba333a3a077bd0be3d0663b8ef0675639247d5736acbd138799b2f974344",
      "transactionIndex": "0x28",
      "blockHash": "0x0195b7a6577e9f4670979cdbe2f3e9d716483d603f43062236cb83640d17853e",
      "blockNumber": "0x188d273",
      "gasUsed": "0xfcfb",
      "effectiveGasPrice": "0xba43b7401",
      "from": "0x4fed0a5b65eac383d36e65733786386709b86be8",
      "to": "0x27b22cdbbf3b03dde7597ec8ff8640b74aeea58b",
      "contractAddress": null
    }
  ],
  "libraries": [],
  "pending": [],
  "returns": {},
  "timestamp": 1752230028,
  "chain": 10143,
  "commit": "5f967ef"
}