{
  "transactions": [
    {
      "hash": "0x32375f7aa45b93dbf944205e33e04c3dd011db59d6243f717dfb4cd78b4ff343",
      "transactionType": "CALL",
      "contractName": null,
      "contractAddress": "0x5ad2943de52aafaf892407c4d9cd1adae13b5a82",
      "function": "addChain(uint64,address)",
      "arguments": [
        "14767482510784806043",
        "0x159AAfAD25cde1D9A2ac121f94e8B748867c77DD"
      ],
      "transaction": {
        "from": "0x4fed0a5b65eac383d36e65733786386709b86be8",
        "to": "0x5ad2943de52aafaf892407c4d9cd1adae13b5a82",
        "gas": "0x10b9b",
        "value": "0x0",
        "input": "0x0c1b1880000000000000000000000000000000000000000000000000ccf0a31a221f3c9b000000000000000000000000159aafad25cde1d9a2ac121f94e8b748867c77dd",
        "nonce": "0x5c",
        "chainId": "0x279f"
      },
      "additionalContracts": [],
      "isFixedGasLimit": false
    }
  ],
  "receipts": [
    {
      "status": "0x1",
      "cumulativeGasUsed": "0xc4e71e",
      "logs": [],
      "logsBloom": "0x00000000000000000000000000000000000000000000000000000000000000000000000000000000000000000000000000000000000000000000000000000000000000000000000000000000000000000000000000000000000000000000000000000000000000000000000000000000000000000000000000000000000000000000000000000000000000000000000000000000000000000000000000000000000000000000000000000000000000000000000000000000000000000000000000000000000000000000000000000000000000000000000000000000000000000000000000000000000000000000000000000000000000000000000000000000",
      "type": "0x2",
      "transactionHash": "0x32375f7aa45b93dbf944205e33e04c3dd011db59d6243f717dfb4cd78b4ff343",
      "transactionIndex": "0x47",
      "blockHash": "0xe85b792a3028b83bab8b4cec527ce0227d0b8855d60ecd210cfffbef572c64ee",
      "blockNumber": "0x181ee64",
      "gasUsed": "0x10b9b",
      "effectiveGasPrice": "0xba43b7401",
      "from": "0x4fed0a5b65eac383d36e65733786386709b86be8",
      "to": "0x5ad2943de52aafaf892407c4d9cd1adae13b5a82",
      "contractAddress": null
    }
  ],
  "libraries": [],
  "pending": [],
  "returns": {},
  "timestamp": 1751988026,
  "chain": 10143,
  "commit": "27cfe53"
}