{
  "transactions": [
    {
      "hash": "0xa1e141510b36b08d87d487c3f549a89cc28ddcaaa7e29e1731af7a7d446fde7e",
      "transactionType": "CALL",
      "contractName": null,
      "contractAddress": "0xb3ec0ebcfd75d776436c4aa03c53a895e55017ba",
      "function": "addChain(uint64,address)",
      "arguments": [
        "14767482510784806043",
        "0x05b54FC98ba988757801a448F53a1e8e023A8c6c"
      ],
      "transaction": {
        "from": "0x4fed0a5b65eac383d36e65733786386709b86be8",
        "to": "0xb3ec0ebcfd75d776436c4aa03c53a895e55017ba",
        "gas": "0xfcfb",
        "value": "0x0",
        "input": "0x0c1b1880000000000000000000000000000000000000000000000000ccf0a31a221f3c9b00000000000000000000000005b54fc98ba988757801a448f53a1e8e023a8c6c",
        "nonce": "0x89",
        "chainId": "0x279f"
      },
      "additionalContracts": [],
      "isFixedGasLimit": false
    }
  ],
  "receipts": [
    {
      "status": "0x1",
      "cumulativeGasUsed": "0x9d38db",
      "logs": [],
      "logsBloom": "0x00000000000000000000000000000000000000000000000000000000000000000000000000000000000000000000000000000000000000000000000000000000000000000000000000000000000000000000000000000000000000000000000000000000000000000000000000000000000000000000000000000000000000000000000000000000000000000000000000000000000000000000000000000000000000000000000000000000000000000000000000000000000000000000000000000000000000000000000000000000000000000000000000000000000000000000000000000000000000000000000000000000000000000000000000000000",
      "type": "0x2",
      "transactionHash": "0xa1e141510b36b08d87d487c3f549a89cc28ddcaaa7e29e1731af7a7d446fde7e",
      "transactionIndex": "0x5b",
      "blockHash": "0x208cd11bd27ba0fe5f482d1bccdf01e7f36e9312abaa338cdf9bd6825ac2ac50",
      "blockNumber": "0x18590b3",
      "gasUsed": "0xfcfb",
      "effectiveGasPrice": "0xba43b7401",
      "from": "0x4fed0a5b65eac383d36e65733786386709b86be8",
      "to": "0xb3ec0ebcfd75d776436c4aa03c53a895e55017ba",
      "contractAddress": null
    }
  ],
  "libraries": [],
  "pending": [],
  "returns": {},
  "timestamp": 1752113173,
  "chain": 10143,
  "commit": "27cfe53"
}