{
  "transactions": [
    {
      "hash": "0x4bdee44897d866844ce890e825333467c841e65f6911941ae5a4950b00cef0e7",
      "transactionType": "CALL",
      "contractName": null,
      "contractAddress": "0xf1a6916111ad79459b643ec561537e485bf5ce46",
      "function": "addChain(uint64,address)",
      "arguments": [
        "14767482510784806043",
        "0xD037596f69C6Db5039e42FD00C1e13afD6ff458d"
      ],
      "transaction": {
        "from": "0x4fed0a5b65eac383d36e65733786386709b86be8",
        "to": "0xf1a6916111ad79459b643ec561537e485bf5ce46",
        "gas": "0xfcfb",
        "value": "0x0",
        "input": "0x0c1b1880000000000000000000000000000000000000000000000000ccf0a31a221f3c9b000000000000000000000000d037596f69c6db5039e42fd00c1e13afd6ff458d",
        "nonce": "0x74",
        "chainId": "0x279f"
      },
      "additionalContracts": [],
      "isFixedGasLimit": false
    }
  ],
  "receipts": [
    {
      "status": "0x1",
      "cumulativeGasUsed": "0xd89691",
      "logs": [],
      "logsBloom": "0x00000000000000000000000000000000000000000000000000000000000000000000000000000000000000000000000000000000000000000000000000000000000000000000000000000000000000000000000000000000000000000000000000000000000000000000000000000000000000000000000000000000000000000000000000000000000000000000000000000000000000000000000000000000000000000000000000000000000000000000000000000000000000000000000000000000000000000000000000000000000000000000000000000000000000000000000000000000000000000000000000000000000000000000000000000000",
      "type": "0x2",
      "transactionHash": "0x4bdee44897d866844ce890e825333467c841e65f6911941ae5a4950b00cef0e7",
      "transactionIndex": "0x73",
      "blockHash": "0x9942d0e9797c7cb111a52a6e5a28be5093ea95618e926dc9e41de442dac9e0ca",
      "blockNumber": "0x1842219",
      "gasUsed": "0xfcfb",
      "effectiveGasPrice": "0xba43b7401",
      "from": "0x4fed0a5b65eac383d36e65733786386709b86be8",
      "to": "0xf1a6916111ad79459b643ec561537e485bf5ce46",
      "contractAddress": null
    }
  ],
  "libraries": [],
  "pending": [],
  "returns": {},
  "timestamp": 1752063843,
  "chain": 10143,
  "commit": "27cfe53"
}