{
  "transactions": [
    {
      "hash": "0x8a1ce48d695a31297d7a05746dd2c9beb63c04df179c4d97759e3ae3600a2bfe",
      "transactionType": "CALL",
      "contractName": null,
      "contractAddress": "0xb3ec0ebcfd75d776436c4aa03c53a895e55017ba",
      "function": "addChain(uint64,address)",
      "arguments": [
        "14767482510784806043",
        "0x05b54FC98ba988757801a448F53a1e8e023A8c6c"
      ],
      "transaction": {
        "from": "0x4fed0a5b65eac383d36e65733786386709b86be8",
        "to": "0xb3ec0ebcfd75d776436c4aa03c53a895e55017ba",
        "gas": "0x919c",
        "value": "0x0",
        "input": "0x0c1b1880000000000000000000000000000000000000000000000000ccf0a31a221f3c9b00000000000000000000000005b54fc98ba988757801a448f53a1e8e023a8c6c",
        "nonce": "0x8c",
        "chainId": "0x279f"
      },
      "additionalContracts": [],
      "isFixedGasLimit": false
    }
  ],
  "receipts": [
    {
      "status": "0x1",
      "cumulativeGasUsed": "0xf5f57e",
      "logs": [],
      "logsBloom": "0x00000000000000000000000000000000000000000000000000000000000000000000000000000000000000000000000000000000000000000000000000000000000000000000000000000000000000000000000000000000000000000000000000000000000000000000000000000000000000000000000000000000000000000000000000000000000000000000000000000000000000000000000000000000000000000000000000000000000000000000000000000000000000000000000000000000000000000000000000000000000000000000000000000000000000000000000000000000000000000000000000000000000000000000000000000000",
      "type": "0x2",
      "transactionHash": "0x8a1ce48d695a31297d7a05746dd2c9beb63c04df179c4d97759e3ae3600a2bfe",
      "transactionIndex": "0x53",
      "blockHash": "0x797378952d57422b172d49f5d97b14201c5950cb42e281052e1c2172a068af62",
      "blockNumber": "0x185a417",
      "gasUsed": "0x919c",
      "effectiveGasPrice": "0xba43b7401",
      "from": "0x4fed0a5b65eac383d36e65733786386709b86be8",
      "to": "0xb3ec0ebcfd75d776436c4aa03c53a895e55017ba",
      "contractAddress": null
    }
  ],
  "libraries": [],
  "pending": [],
  "returns": {},
  "timestamp": 1752115755,
  "chain": 10143,
  "commit": "27cfe53"
}