{
  "transactions": [
    {
      "hash": "0x2ee47994b1114a70e83df7475b6b82c0c2f427bb3a926bca5a18ea533da6533e",
      "transactionType": "CALL",
      "contractName": null,
      "contractAddress": "0x0638ded53d44c38fed362f987feacaf067357509",
      "function": "addChain(uint64,address)",
      "arguments": [
        "14767482510784806043",
        "0xb8985AC25eE965e8812E33bc618a3a62e69e648B"
      ],
      "transaction": {
        "from": "0x4fed0a5b65eac383d36e65733786386709b86be8",
        "to": "0x0638ded53d44c38fed362f987feacaf067357509",
        "gas": "0xfcfb",
        "value": "0x0",
        "input": "0x0c1b1880000000000000000000000000000000000000000000000000ccf0a31a221f3c9b000000000000000000000000b8985ac25ee965e8812e33bc618a3a62e69e648b",
        "nonce": "0xbe",
        "chainId": "0x279f"
      },
      "additionalContracts": [],
      "isFixedGasLimit": false
    }
  ],
  "receipts": [
    {
      "status": "0x1",
      "cumulativeGasUsed": "0x90e6cf",
      "logs": [],
      "logsBloom": "0x00000000000000000000000000000000000000000000000000000000000000000000000000000000000000000000000000000000000000000000000000000000000000000000000000000000000000000000000000000000000000000000000000000000000000000000000000000000000000000000000000000000000000000000000000000000000000000000000000000000000000000000000000000000000000000000000000000000000000000000000000000000000000000000000000000000000000000000000000000000000000000000000000000000000000000000000000000000000000000000000000000000000000000000000000000000",
      "type": "0x2",
      "transactionHash": "0x2ee47994b1114a70e83df7475b6b82c0c2f427bb3a926bca5a18ea533da6533e",
      "transactionIndex": "0x21",
      "blockHash": "0x990e3cb413cd0b1eb22977663a56ddc3a1ebe349352da1e776998b6a2514e3d5",
      "blockNumber": "0x189277a",
      "gasUsed": "0xfcfb",
      "effectiveGasPrice": "0xba43b7401",
      "from": "0x4fed0a5b65eac383d36e65733786386709b86be8",
      "to": "0x0638ded53d44c38fed362f987feacaf067357509",
      "contractAddress": null
    }
  ],
  "libraries": [],
  "pending": [],
  "returns": {},
  "timestamp": 1752242407,
  "chain": 10143,
  "commit": "6e4d811"
}