{
  "transactions": [
    {
      "hash": "0x224c35b7b422dbff794ae2ba39b2a900618cc22206565fd408bd477648ad7fcb",
      "transactionType": "CALL",
      "contractName": null,
      "contractAddress": "0xde3dd3039c88471f37e3089d81eec6c43cbedb80",
      "function": "addChain(uint64,address)",
      "arguments": [
        "14767482510784806043",
        "0xb8dbF46651dfB752E83F83a9050CB1597812Fd87"
      ],
      "transaction": {
        "from": "0x4fed0a5b65eac383d36e65733786386709b86be8",
        "to": "0xde3dd3039c88471f37e3089d81eec6c43cbedb80",
        "gas": "0x10bbd",
        "value": "0x0",
        "input": "0x0c1b1880000000000000000000000000000000000000000000000000ccf0a31a221f3c9b000000000000000000000000b8dbf46651dfb752e83f83a9050cb1597812fd87",
        "nonce": "0x51",
        "chainId": "0x279f"
      },
      "additionalContracts": [],
      "isFixedGasLimit": false
    }
  ],
  "receipts": [
    {
      "status": "0x1",
      "cumulativeGasUsed": "0x84ccc4",
      "logs": [],
      "logsBloom": "0x00000000000000000000000000000000000000000000000000000000000000000000000000000000000000000000000000000000000000000000000000000000000000000000000000000000000000000000000000000000000000000000000000000000000000000000000000000000000000000000000000000000000000000000000000000000000000000000000000000000000000000000000000000000000000000000000000000000000000000000000000000000000000000000000000000000000000000000000000000000000000000000000000000000000000000000000000000000000000000000000000000000000000000000000000000000",
      "type": "0x2",
      "transactionHash": "0x224c35b7b422dbff794ae2ba39b2a900618cc22206565fd408bd477648ad7fcb",
      "transactionIndex": "0x57",
      "blockHash": "0x4a21c8d5760571b84c4676239bca6cc036bf131501ca0a376cf9bba38b746c4d",
      "blockNumber": "0x181c73e",
      "gasUsed": "0x10bbd",
      "effectiveGasPrice": "0xba43b7401",
      "from": "0x4fed0a5b65eac383d36e65733786386709b86be8",
      "to": "0xde3dd3039c88471f37e3089d81eec6c43cbedb80",
      "contractAddress": null
    }
  ],
  "libraries": [],
  "pending": [],
  "returns": {},
  "timestamp": 1751982468,
  "chain": 10143,
  "commit": "27cfe53"
}