{
  "transactions": [
    {
      "hash": "0x1decc932b7c68974045ac8712354115142bab714734db4256a1c4aa5250033b8",
      "transactionType": "CALL",
      "contractName": null,
      "contractAddress": "0x1258f013d1ba690dc73ea89fd48f86e86ad0f124",
      "function": "addChain(uint64,address)",
      "arguments": [
        "14767482510784806043",
        "0xb8dbF46651dfB752E83F83a9050CB1597812Fd87"
      ],
      "transaction": {
        "from": "0x4fed0a5b65eac383d36e65733786386709b86be8",
        "to": "0x1258f013d1ba690dc73ea89fd48f86e86ad0f124",
        "gas": "0x10b9b",
        "value": "0x0",
        "input": "0x0c1b1880000000000000000000000000000000000000000000000000ccf0a31a221f3c9b000000000000000000000000b8dbf46651dfb752e83f83a9050cb1597812fd87",
        "nonce": "0x3a",
        "chainId": "0x279f"
      },
      "additionalContracts": [],
      "isFixedGasLimit": false
    }
  ],
  "receipts": [
    {
      "status": "0x1",
      "cumulativeGasUsed": "0x4aaa62",
      "logs": [],
      "logsBloom": "0x00000000000000000000000000000000000000000000000000000000000000000000000000000000000000000000000000000000000000000000000000000000000000000000000000000000000000000000000000000000000000000000000000000000000000000000000000000000000000000000000000000000000000000000000000000000000000000000000000000000000000000000000000000000000000000000000000000000000000000000000000000000000000000000000000000000000000000000000000000000000000000000000000000000000000000000000000000000000000000000000000000000000000000000000000000000",
      "type": "0x2",
      "transactionHash": "0x1decc932b7c68974045ac8712354115142bab714734db4256a1c4aa5250033b8",
      "transactionIndex": "0x41",
      "blockHash": "0xeeac9b3f0dea4ceb30b79add814e0e39d9b429b27c2600391fda1adeddd81948",
      "blockNumber": "0x180584c",
      "gasUsed": "0x10b9b",
      "effectiveGasPrice": "0xba43b7401",
      "from": "0x4fed0a5b65eac383d36e65733786386709b86be8",
      "to": "0x1258f013d1ba690dc73ea89fd48f86e86ad0f124",
      "contractAddress": null
    }
  ],
  "libraries": [],
  "pending": [],
  "returns": {},
  "timestamp": 1751930696,
  "chain": 10143,
  "commit": "27cfe53"
}